{
  "contractName": "presale",
  "abi": [
    {
      "inputs": [],
      "stateMutability": "nonpayable",
      "type": "constructor"
    },
    {
      "anonymous": false,
      "inputs": [
        {
          "indexed": true,
          "internalType": "address",
          "name": "_user",
          "type": "address"
        },
        {
          "indexed": true,
          "internalType": "uint256",
          "name": "_amount",
          "type": "uint256"
        }
      ],
      "name": "BuyToken",
      "type": "event"
    },
    {
      "anonymous": false,
      "inputs": [
        {
          "indexed": true,
          "internalType": "address",
          "name": "previousOwner",
          "type": "address"
        },
        {
          "indexed": true,
          "internalType": "address",
          "name": "newOwner",
          "type": "address"
        }
      ],
      "name": "OwnershipTransferred",
      "type": "event"
    },
    {
      "anonymous": false,
      "inputs": [
        {
          "indexed": true,
          "internalType": "uint256",
          "name": "_newPrice",
          "type": "uint256"
        }
      ],
      "name": "UpdatePrice",
      "type": "event"
    },
    {
      "anonymous": false,
      "inputs": [
        {
          "indexed": true,
          "internalType": "uint256",
          "name": "newsold",
          "type": "uint256"
        }
      ],
      "name": "UpdateSoldTokens",
      "type": "event"
    },
    {
      "anonymous": false,
      "inputs": [
        {
          "indexed": true,
          "internalType": "uint256",
          "name": "_newTime",
          "type": "uint256"
        }
      ],
      "name": "UpdateTime",
      "type": "event"
    },
    {
      "anonymous": false,
      "inputs": [
        {
          "indexed": true,
          "internalType": "uint256",
          "name": "newsupply",
          "type": "uint256"
        }
      ],
      "name": "UpdateTotalSupply",
      "type": "event"
    },
    {
      "inputs": [],
      "name": "BUSD",
      "outputs": [
        {
          "internalType": "contract IERC20Metadata",
          "name": "",
          "type": "address"
        }
      ],
      "stateMutability": "view",
      "type": "function"
    },
    {
      "inputs": [],
      "name": "DEXOToken",
      "outputs": [
        {
          "internalType": "contract IERC20Metadata",
          "name": "",
          "type": "address"
        }
      ],
      "stateMutability": "view",
      "type": "function"
    },
    {
      "inputs": [],
      "name": "USDT",
      "outputs": [
        {
          "internalType": "contract IERC20Metadata",
          "name": "",
          "type": "address"
        }
      ],
      "stateMutability": "view",
      "type": "function"
    },
    {
      "inputs": [],
      "name": "amountRaisedBNB",
      "outputs": [
        {
          "internalType": "uint256",
          "name": "",
          "type": "uint256"
        }
      ],
      "stateMutability": "view",
      "type": "function"
    },
    {
      "inputs": [],
      "name": "amountRaisedBUSD",
      "outputs": [
        {
          "internalType": "uint256",
          "name": "",
          "type": "uint256"
        }
      ],
      "stateMutability": "view",
      "type": "function"
    },
    {
      "inputs": [],
      "name": "amountRaisedUSDT",
      "outputs": [
        {
          "internalType": "uint256",
          "name": "",
          "type": "uint256"
        }
      ],
      "stateMutability": "view",
      "type": "function"
    },
    {
      "inputs": [],
      "name": "divider",
      "outputs": [
        {
          "internalType": "uint256",
          "name": "",
          "type": "uint256"
        }
      ],
      "stateMutability": "view",
      "type": "function"
    },
    {
      "inputs": [],
      "name": "isclaimactive",
      "outputs": [
        {
          "internalType": "bool",
          "name": "",
          "type": "bool"
        }
      ],
      "stateMutability": "view",
      "type": "function"
    },
    {
      "inputs": [],
      "name": "owner",
      "outputs": [
        {
          "internalType": "address payable",
          "name": "",
          "type": "address"
        }
      ],
      "stateMutability": "view",
      "type": "function"
    },
    {
      "inputs": [],
      "name": "preSaleStartTime",
      "outputs": [
        {
          "internalType": "uint256",
          "name": "",
          "type": "uint256"
        }
      ],
      "stateMutability": "view",
      "type": "function"
    },
    {
      "inputs": [],
      "name": "priceFeedbnb",
      "outputs": [
        {
          "internalType": "contract AggregatorV3Interface",
          "name": "",
          "type": "address"
        }
      ],
      "stateMutability": "view",
      "type": "function"
    },
    {
      "inputs": [],
      "name": "soldToken",
      "outputs": [
        {
          "internalType": "uint256",
          "name": "",
          "type": "uint256"
        }
      ],
      "stateMutability": "view",
      "type": "function"
    },
    {
      "inputs": [],
      "name": "tokenPerUsd",
      "outputs": [
        {
          "internalType": "uint256",
          "name": "",
          "type": "uint256"
        }
      ],
      "stateMutability": "view",
      "type": "function"
    },
    {
      "inputs": [],
      "name": "totalSupply",
      "outputs": [
        {
          "internalType": "uint256",
          "name": "",
          "type": "uint256"
        }
      ],
      "stateMutability": "view",
      "type": "function"
    },
    {
      "inputs": [
        {
          "internalType": "address",
          "name": "",
          "type": "address"
        }
      ],
      "name": "users",
      "outputs": [
        {
          "internalType": "uint256",
          "name": "bnb_balance",
          "type": "uint256"
        },
        {
          "internalType": "uint256",
          "name": "busd_balance",
          "type": "uint256"
        },
        {
          "internalType": "uint256",
          "name": "usdt_balance",
          "type": "uint256"
        },
        {
          "internalType": "uint256",
          "name": "token_balance",
          "type": "uint256"
        }
      ],
      "stateMutability": "view",
      "type": "function"
    },
    {
      "inputs": [],
      "name": "wallet1",
      "outputs": [
        {
          "internalType": "address payable",
          "name": "",
          "type": "address"
        }
      ],
      "stateMutability": "view",
      "type": "function"
    },
    {
      "inputs": [],
      "name": "wallet2",
      "outputs": [
        {
          "internalType": "address payable",
          "name": "",
          "type": "address"
        }
      ],
      "stateMutability": "view",
      "type": "function"
    },
    {
      "stateMutability": "payable",
      "type": "receive"
    },
    {
      "inputs": [],
      "name": "getLatestPricebnb",
      "outputs": [
        {
          "internalType": "uint256",
          "name": "",
          "type": "uint256"
        }
      ],
      "stateMutability": "view",
      "type": "function"
    },
    {
      "inputs": [],
      "name": "buyTokenbnb",
      "outputs": [],
      "stateMutability": "payable",
      "type": "function"
    },
    {
      "inputs": [
        {
          "internalType": "uint256",
          "name": "amount",
          "type": "uint256"
        }
      ],
      "name": "buyTokenbusd",
      "outputs": [],
      "stateMutability": "nonpayable",
      "type": "function"
    },
    {
      "inputs": [
        {
          "internalType": "uint256",
          "name": "amount",
          "type": "uint256"
        }
      ],
      "name": "buyTokenUSDT",
      "outputs": [],
      "stateMutability": "nonpayable",
      "type": "function"
    },
    {
      "inputs": [],
      "name": "claimToken",
      "outputs": [],
      "stateMutability": "nonpayable",
      "type": "function"
    },
    {
      "inputs": [
        {
          "internalType": "uint256",
          "name": "_amount",
          "type": "uint256"
        }
      ],
      "name": "bnbToToken",
      "outputs": [
        {
          "internalType": "uint256",
          "name": "",
          "type": "uint256"
        }
      ],
      "stateMutability": "view",
      "type": "function"
    },
    {
      "inputs": [
        {
          "internalType": "uint256",
          "name": "_amount",
          "type": "uint256"
        }
      ],
      "name": "busdToToken",
      "outputs": [
        {
          "internalType": "uint256",
          "name": "",
          "type": "uint256"
        }
      ],
      "stateMutability": "view",
      "type": "function"
    },
    {
      "inputs": [
        {
          "internalType": "uint256",
          "name": "_amount",
          "type": "uint256"
        }
      ],
      "name": "usdtToToken",
      "outputs": [
        {
          "internalType": "uint256",
          "name": "",
          "type": "uint256"
        }
      ],
      "stateMutability": "view",
      "type": "function"
    },
    {
      "inputs": [],
      "name": "getProgress",
      "outputs": [
        {
          "internalType": "uint256",
          "name": "_percent",
          "type": "uint256"
        }
      ],
      "stateMutability": "view",
      "type": "function"
    },
    {
      "inputs": [
        {
          "internalType": "bool",
          "name": "_claim",
          "type": "bool"
        }
      ],
      "name": "enableClaim",
      "outputs": [],
      "stateMutability": "nonpayable",
      "type": "function"
    },
    {
      "inputs": [
        {
          "internalType": "uint256",
          "name": "_price",
          "type": "uint256"
        }
      ],
      "name": "changePrice",
      "outputs": [],
      "stateMutability": "nonpayable",
      "type": "function"
    },
    {
      "inputs": [
        {
          "internalType": "uint256",
          "name": "_totalSupply",
          "type": "uint256"
        },
        {
          "internalType": "uint256",
          "name": "_soldToken",
          "type": "uint256"
        }
      ],
      "name": "settotalSupply",
      "outputs": [],
      "stateMutability": "nonpayable",
      "type": "function"
    },
    {
      "inputs": [
        {
          "internalType": "uint256",
          "name": "_startTime",
          "type": "uint256"
        }
      ],
      "name": "setPreSaleTime",
      "outputs": [],
      "stateMutability": "nonpayable",
      "type": "function"
    },
    {
      "inputs": [
        {
          "internalType": "address payable",
          "name": "_newOwner",
          "type": "address"
        }
      ],
      "name": "changeOwner",
      "outputs": [],
      "stateMutability": "nonpayable",
      "type": "function"
    },
    {
      "inputs": [
        {
          "internalType": "address",
          "name": "_token",
          "type": "address"
        }
      ],
      "name": "changeToken",
      "outputs": [],
      "stateMutability": "nonpayable",
      "type": "function"
    },
    {
      "inputs": [
        {
          "internalType": "address",
          "name": "_BUSD",
          "type": "address"
        }
      ],
      "name": "changeBUSD",
      "outputs": [],
      "stateMutability": "nonpayable",
      "type": "function"
    },
    {
      "inputs": [
        {
          "internalType": "address payable",
          "name": "_w1",
          "type": "address"
        },
        {
          "internalType": "address payable",
          "name": "_w2",
          "type": "address"
        }
      ],
      "name": "changewallets",
      "outputs": [],
      "stateMutability": "nonpayable",
      "type": "function"
    },
    {
      "inputs": [
        {
          "internalType": "address",
          "name": "_USDT",
          "type": "address"
        }
      ],
      "name": "changeUSDT",
      "outputs": [],
      "stateMutability": "nonpayable",
      "type": "function"
    },
    {
      "inputs": [
        {
          "internalType": "uint256",
          "name": "_value",
          "type": "uint256"
        }
      ],
      "name": "transferFundsBNB",
      "outputs": [],
      "stateMutability": "nonpayable",
      "type": "function"
    },
    {
      "inputs": [
        {
          "internalType": "contract IERC20Metadata",
          "name": "token",
          "type": "address"
        },
        {
          "internalType": "uint256",
          "name": "_value",
          "type": "uint256"
        }
      ],
      "name": "transferStuckTokens",
      "outputs": [],
      "stateMutability": "nonpayable",
      "type": "function"
    },
    {
      "inputs": [],
      "name": "getCurrentTime",
      "outputs": [
        {
          "internalType": "uint256",
          "name": "",
          "type": "uint256"
        }
      ],
      "stateMutability": "view",
      "type": "function"
    },
    {
      "inputs": [],
      "name": "contractBalancebnb",
      "outputs": [
        {
          "internalType": "uint256",
          "name": "",
          "type": "uint256"
        }
      ],
      "stateMutability": "view",
      "type": "function"
    },
    {
      "inputs": [],
      "name": "contractBalanceBUSD",
      "outputs": [
        {
          "internalType": "uint256",
          "name": "",
          "type": "uint256"
        }
      ],
      "stateMutability": "view",
      "type": "function"
    },
    {
      "inputs": [],
      "name": "contractBalanceUSDT",
      "outputs": [
        {
          "internalType": "uint256",
          "name": "",
          "type": "uint256"
        }
      ],
      "stateMutability": "view",
      "type": "function"
    },
    {
      "inputs": [],
      "name": "getContractTokenApproval",
      "outputs": [
        {
          "internalType": "uint256",
          "name": "",
          "type": "uint256"
        }
      ],
      "stateMutability": "view",
      "type": "function"
    }
  ],
  "bytecode": "0x6080604052600080546001600160a01b031990811673fcfc325875c949f049649101082f703000cb205d1790915560018054821673e9e7cea3dedca5984780bafc599bd69add087d561790556002805482167355d398326f99059ff775485246999027b3197955179055600580548216734466561fda2d199c7fd9453b9e43f32f3f48129b17905560068054909116733f2232fe12769ff82574770fa8f736cb9f00d42f1790556803f13156b6826800006007556a422ca8b0a00a4250000000600d553480156100ce57600080fd5b50600480546001600160a01b0319908116735bc2ea79408ff1dc823ae87d2b1c481a46ee7e5d1790915560038054909116730567f2323251f0aab15c8dfb1967e4e8a7d42aee17905542600855611a1c8061012a6000396000f3fe6080604052600436106102555760003560e01c806366829b1611610139578063a4ec5fcf116100b6578063c54e44eb1161007a578063c54e44eb1461068c578063c9067324146106ac578063e13e0207146106bf578063e9761c1f146106d5578063f352888a146106f5578063f8fc24901461071557600080fd5b8063a4ec5fcf146105a0578063a6f9dae1146105c0578063a87430ba146105e0578063ad781a9c14610642578063b5e75e1c1461066c57600080fd5b80638e50c931116100fd5780638e50c931146105205780638fa2157e14610535578063939c445614610555578063a1e98a6d1461056a578063a2b40d191461058057600080fd5b806366829b16146104ad5780636769d1f9146104cd5780636e7d48a1146104e35780638565bd68146104f85780638da5cb5b1461050057600080fd5b80631a026c96116101d257806343fd1be21161019657806343fd1be21461042357806344118ce1146104385780634451d89f146104585780634782e4071461046d578063484f4ea91461048d578063486047dc1461043857600080fd5b80631a026c96146103a557806329cb924d146103c5578063378efa37146103d85780633cfb9520146103ed578063405fb9441461040d57600080fd5b80630cd7fc4d116102195780630cd7fc4d146103245780630f0e4f73146103395780630fe629cb1461035957806318160ddd1461037957806319adc7741461038f57600080fd5b8063017e22ef1461026157806306131faf1461028357806306d65af3146102c05780630b8d0a28146102e45780630ccf06641461030457600080fd5b3661025c57005b600080fd5b34801561026d57600080fd5b5061028161027c3660046115c0565b610735565b005b34801561028f57600080fd5b506003546102a3906001600160a01b031681565b6040516001600160a01b0390911681526020015b60405180910390f35b3480156102cc57600080fd5b506102d660085481565b6040519081526020016102b7565b3480156102f057600080fd5b506006546102a3906001600160a01b031681565b34801561031057600080fd5b5061028161031f3660046115e7565b61087f565b34801561033057600080fd5b506102d66108bc565b34801561034557600080fd5b506102816103543660046115c0565b610952565b34801561036557600080fd5b506102d66103743660046115c0565b6109af565b34801561038557600080fd5b506102d6600d5481565b34801561039b57600080fd5b506102d6600a5481565b3480156103b157600080fd5b506005546102a3906001600160a01b031681565b3480156103d157600080fd5b50426102d6565b3480156103e457600080fd5b506102d6606481565b3480156103f957600080fd5b50610281610408366004611619565b6109f1565b34801561041957600080fd5b506102d6600c5481565b34801561042f57600080fd5b506102d6610a33565b34801561044457600080fd5b506102d66104533660046115c0565b610ab4565b34801561046457600080fd5b50610281610adf565b34801561047957600080fd5b50610281610488366004611645565b610bc0565b34801561049957600080fd5b506001546102a3906001600160a01b031681565b3480156104b957600080fd5b506102816104c8366004611645565b610c0c565b3480156104d957600080fd5b506102d660095481565b3480156104ef57600080fd5b506102d6610c58565b610281610c89565b34801561050c57600080fd5b506004546102a3906001600160a01b031681565b34801561052c57600080fd5b506102d6610dcd565b34801561054157600080fd5b50610281610550366004611662565b610dfe565b34801561056157600080fd5b506102d6610e8c565b34801561057657600080fd5b506102d660075481565b34801561058c57600080fd5b5061028161059b3660046115c0565b610f4f565b3480156105ac57600080fd5b506102816105bb366004611645565b610fac565b3480156105cc57600080fd5b506102816105db366004611645565b610ff8565b3480156105ec57600080fd5b506106226105fb366004611645565b600f6020526000908152604090208054600182015460028301546003909301549192909184565b6040805194855260208501939093529183015260608201526080016102b7565b34801561064e57600080fd5b50600e5461065c9060ff1681565b60405190151581526020016102b7565b34801561067857600080fd5b506102816106873660046115c0565b6110d4565b34801561069857600080fd5b506002546102a3906001600160a01b031681565b3480156106b857600080fd5b50476102d6565b3480156106cb57600080fd5b506102d6600b5481565b3480156106e157600080fd5b506000546102a3906001600160a01b031681565b34801561070157600080fd5b50610281610710366004611684565b6111f8565b34801561072157600080fd5b506102816107303660046115c0565b6112af565b600d5460095411156107625760405162461bcd60e51b8152600401610759906116bd565b60405180910390fd5b6008544210156107845760405162461bcd60e51b8152600401610759906116df565b60015461079c906001600160a01b0316333084611313565b6005546107d5906001600160a01b03166107c260646107bc856023611384565b90611399565b6001546001600160a01b031691906113a5565b6006546107f5906001600160a01b03166107c260646107bc856041611384565b600061080082610ab4565b905080600954610810919061172a565b600955600b5461082190839061172a565b600b55336000908152600f602052604090206001015461084290839061172a565b336000908152600f6020526040902060018101919091556003015461086890829061172a565b336000908152600f60205260409020600301555050565b6004546001600160a01b031633146108a95760405162461bcd60e51b81526004016107599061173d565b600e805460ff1916911515919091179055565b600080600360009054906101000a90046001600160a01b03166001600160a01b031663feaf968c6040518163ffffffff1660e01b815260040160a060405180830381865afa158015610912573d6000803e3d6000fd5b505050506040513d601f19601f82011682018060405250810190610936919061178b565b5050509150506305f5e1008161094c91906117db565b91505090565b6004546001600160a01b0316331461097c5760405162461bcd60e51b81526004016107599061173d565b600881905560405181907fd385a2979c516d4f887314b36cb72410516e40bc62971c930553bd2955e8fc6b90600090a250565b600080670de0b6b3a76400006109c36108bc565b6109cd90856117fd565b6109d791906117db565b90506000600754826109e991906117fd565b949350505050565b6004546001600160a01b03163314610a1b5760405162461bcd60e51b81526004016107599061173d565b610a2f6001600160a01b03831633836113a5565b5050565b6000805460048054604051636eb1769f60e11b81526001600160a01b03918216928101929092523060248301529091169063dd62ed3e906044015b602060405180830381865afa158015610a8b573d6000803e3d6000fd5b505050506040513d601f19601f82011682018060405250810190610aaf9190611814565b905090565b600080670de0b6b3a764000060075484610ace91906117fd565b610ad891906117db565b9392505050565b600e5460ff16610b315760405162461bcd60e51b815260206004820152601960248201527f70726553616c653a20436c61696d206e6f7420616374697665000000000000006044820152606401610759565b336000908152600f602052604090206003015480610b915760405162461bcd60e51b815260206004820152601a60248201527f50524553414c453a204e6f20746f6b656e20746f20636c61696d0000000000006044820152606401610759565b336000818152600f6020526040812060030181905554610bbd916001600160a01b0390911690836113a5565b50565b6004546001600160a01b03163314610bea5760405162461bcd60e51b81526004016107599061173d565b600280546001600160a01b0319166001600160a01b0392909216919091179055565b6004546001600160a01b03163314610c365760405162461bcd60e51b81526004016107599061173d565b600080546001600160a01b0319166001600160a01b0392909216919091179055565b6001546040516370a0823160e01b81523060048201526000916001600160a01b0316906370a0823190602401610a6e565b600d546009541115610cad5760405162461bcd60e51b8152600401610759906116bd565b600854421015610ccf5760405162461bcd60e51b8152600401610759906116df565b6000610cda346109af565b60055490915034906001600160a01b03166108fc610cfe60646107bc856023611384565b6040518115909202916000818181858888f19350505050158015610d26573d6000803e3d6000fd5b506006546001600160a01b03166108fc610d4660646107bc856041611384565b6040518115909202916000818181858888f19350505050158015610d6e573d6000803e3d6000fd5b5081600954610d7d919061172a565b600955600a54610d8e90349061172a565b600a55336000908152600f6020526040902054610dac90349061172a565b336000908152600f602052604090209081556003015461086890839061172a565b6002546040516370a0823160e01b81523060048201526000916001600160a01b0316906370a0823190602401610a6e565b6004546001600160a01b03163314610e285760405162461bcd60e51b81526004016107599061173d565b600d829055600981905560405182907fee643f334779f1031decbee003f80a0bcb7ecdc24b6693539cf7447a66afba8a90600090a260405181907fb1c66b4f01ea039970798eab8856e7dc4d16f62b5d12d514697fd32fb01d822a90600090a25050565b600080546040805163313ce56760e01b8152905183926001600160a01b03169163313ce5679160048083019260209291908290030181865afa158015610ed6573d6000803e3d6000fd5b505050506040513d601f19601f82011682018060405250810190610efa919061182d565b610f0590600a611934565b600954610f1291906117db565b600d54610f1f9190611943565b600d54909150610f306064836117fd565b610f3a91906117db565b90506064610f488282611943565b9250505090565b6004546001600160a01b03163314610f795760405162461bcd60e51b81526004016107599061173d565b600781905560405181907f1a15ab7124a4e1ce00837351261771caf1691cd7d85ed3a0ac3157a1ee1a380590600090a250565b6004546001600160a01b03163314610fd65760405162461bcd60e51b81526004016107599061173d565b600180546001600160a01b0319166001600160a01b0392909216919091179055565b6004546001600160a01b031633146110225760405162461bcd60e51b81526004016107599061173d565b6001600160a01b0381166110885760405162461bcd60e51b815260206004820152602760248201527f5f6e65774f776e65722077616c6c65742063616e6e6f742062652061646472656044820152667373207a65726f60c81b6064820152608401610759565b600480546001600160a01b0319166001600160a01b03831690811790915560405181907f8be0079c531659141344cd1fd0a4f28419497f9722a3daafe3b4186f6b6457e090600090a350565b6008544210156110f65760405162461bcd60e51b8152600401610759906116df565b600d54600954111561111a5760405162461bcd60e51b8152600401610759906116bd565b600254611132906001600160a01b0316333084611313565b600554611165906001600160a01b031661115260646107bc856023611384565b6002546001600160a01b031691906113a5565b600654611185906001600160a01b031661115260646107bc856041611384565b600061119082610ab4565b9050806009546111a0919061172a565b600955600c546111b190839061172a565b600c55336000908152600f60205260409020600201546111d290839061172a565b336000908152600f6020526040902060028101919091556003015461086890829061172a565b6004546001600160a01b031633146112225760405162461bcd60e51b81526004016107599061173d565b6001600160a01b0382161580159061124257506001600160a01b03811615155b6112815760405162461bcd60e51b815260206004820152601060248201526f496e76616c696420616464726573732160801b6044820152606401610759565b600580546001600160a01b039384166001600160a01b03199182161790915560068054929093169116179055565b6004546001600160a01b031633146112d95760405162461bcd60e51b81526004016107599061173d565b6004546040516001600160a01b039091169082156108fc029083906000818181858888f19350505050158015610a2f573d6000803e3d6000fd5b6040516001600160a01b038085166024830152831660448201526064810182905261137e9085906323b872dd60e01b906084015b60408051601f198184030181529190526020810180516001600160e01b03166001600160e01b0319909316929092179091526113da565b50505050565b600061139082846117fd565b90505b92915050565b600061139082846117db565b6040516001600160a01b0383166024820152604481018290526113d590849063a9059cbb60e01b90606401611347565b505050565b600061142f826040518060400160405280602081526020017f5361666545524332303a206c6f772d6c6576656c2063616c6c206661696c6564815250856001600160a01b03166114ac9092919063ffffffff16565b8051909150156113d5578080602001905181019061144d9190611956565b6113d55760405162461bcd60e51b815260206004820152602a60248201527f5361666545524332303a204552433230206f7065726174696f6e20646964206e6044820152691bdd081cdd58d8d9595960b21b6064820152608401610759565b60606109e98484600085856001600160a01b0385163b61150e5760405162461bcd60e51b815260206004820152601d60248201527f416464726573733a2063616c6c20746f206e6f6e2d636f6e74726163740000006044820152606401610759565b600080866001600160a01b0316858760405161152a9190611997565b60006040518083038185875af1925050503d8060008114611567576040519150601f19603f3d011682016040523d82523d6000602084013e61156c565b606091505b509150915061157c828286611587565b979650505050505050565b60608315611596575081610ad8565b8251156115a65782518084602001fd5b8160405162461bcd60e51b815260040161075991906119b3565b6000602082840312156115d257600080fd5b5035919050565b8015158114610bbd57600080fd5b6000602082840312156115f957600080fd5b8135610ad8816115d9565b6001600160a01b0381168114610bbd57600080fd5b6000806040838503121561162c57600080fd5b823561163781611604565b946020939093013593505050565b60006020828403121561165757600080fd5b8135610ad881611604565b6000806040838503121561167557600080fd5b50508035926020909101359150565b6000806040838503121561169757600080fd5b82356116a281611604565b915060208301356116b281611604565b809150509250929050565b602080825260089082015267105b1b0814dbdb1960c21b604082015260600190565b6020808252818101527f50524553414c453a2050726553616c65204e6f74205374617274656420596574604082015260600190565b634e487b7160e01b600052601160045260246000fd5b8082018082111561139357611393611714565b602080825260159082015274282922a9a0a6229d102737ba1030b71037bbb732b960591b604082015260600190565b805169ffffffffffffffffffff8116811461178657600080fd5b919050565b600080600080600060a086880312156117a357600080fd5b6117ac8661176c565b94506020860151935060408601519250606086015191506117cf6080870161176c565b90509295509295909350565b6000826117f857634e487b7160e01b600052601260045260246000fd5b500490565b808202811582820484141761139357611393611714565b60006020828403121561182657600080fd5b5051919050565b60006020828403121561183f57600080fd5b815160ff81168114610ad857600080fd5b600181815b8085111561188b57816000190482111561187157611871611714565b8085161561187e57918102915b93841c9390800290611855565b509250929050565b6000826118a257506001611393565b816118af57506000611393565b81600181146118c557600281146118cf576118eb565b6001915050611393565b60ff8411156118e0576118e0611714565b50506001821b611393565b5060208310610133831016604e8410600b841016171561190e575081810a611393565b6119188383611850565b806000190482111561192c5761192c611714565b029392505050565b600061139060ff841683611893565b8181038181111561139357611393611714565b60006020828403121561196857600080fd5b8151610ad8816115d9565b60005b8381101561198e578181015183820152602001611976565b50506000910152565b600082516119a9818460208701611973565b9190910192915050565b60208152600082518060208401526119d2816040850160208701611973565b601f01601f1916919091016040019291505056fea2646970667358221220b26caeee7981f9e67725b33a63e83c6f3fcac5d76c8ed69b176f4e830bae466f64736f6c63430008110033",
  "immutableReferences": {},
  "source": "// SPDX-License-Identifier: MIT\npragma solidity ^0.8.15;\n\nimport \"@openzeppelin/contracts/token/ERC20/extensions/IERC20Metadata.sol\";\nimport \"@openzeppelin/contracts/token/ERC20/utils/SafeERC20.sol\";\nimport \"@openzeppelin/contracts/utils/math/SafeMath.sol\";\nimport \"@chainlink/contracts/src/v0.8/interfaces/AggregatorV3Interface.sol\";\n\ncontract presale {\n    using SafeMath for uint256;\n    using SafeERC20 for IERC20Metadata;\n\n    IERC20Metadata public DEXOToken =\n        IERC20Metadata(0xFcfC325875C949F049649101082F703000CB205d);\n    IERC20Metadata public BUSD = IERC20Metadata(0xe9e7CEA3DedcA5984780Bafc599bD69ADd087D56);\n    IERC20Metadata public USDT = IERC20Metadata(0x55d398326f99059fF775485246999027B3197955);\n    AggregatorV3Interface public priceFeedbnb;\n\n    address payable public owner;\n    address payable public wallet1 =\n        payable(0x4466561Fda2D199c7fD9453B9E43F32F3f48129b); // (35%)\n    address payable public wallet2 =\n        payable(0x3F2232Fe12769FF82574770fA8f736cB9F00D42f); //(65%)\n\n    uint256 public tokenPerUsd = 72720000000000000000;\n    uint256 public preSaleStartTime;\n    uint256 public soldToken;\n    uint256 public amountRaisedBNB;\n    uint256 public amountRaisedBUSD;\n    uint256 public amountRaisedUSDT;\n    uint256 public totalSupply = 80000000 ether;\n    uint256 public constant divider = 100;\n\n    bool public isclaimactive;\n\n    struct user {\n        uint256 bnb_balance;\n        uint256 busd_balance;\n        uint256 usdt_balance;\n        uint256 token_balance;\n    }\n\n    mapping(address => user) public users;\n\n    modifier onlyOwner() {\n        require(msg.sender == owner, \"PRESALE: Not an owner\");\n        _;\n    }\n\n    event BuyToken(address indexed _user, uint256 indexed _amount);\n    event OwnershipTransferred(\n        address indexed previousOwner,\n        address indexed newOwner\n    );\n    event UpdateTotalSupply(uint256 indexed newsupply);\n    event UpdateSoldTokens(uint256 indexed newsold);\n    event UpdatePrice(uint256 indexed _newPrice);\n    event UpdateTime(uint256 indexed _newTime);\n\n    constructor() {\n        owner = payable(0x5bc2Ea79408ff1dC823aE87d2b1c481a46ee7e5D);\n        //mainnet BSC\n        priceFeedbnb = AggregatorV3Interface(\n            0x0567F2323251f0Aab15c8dFb1967E4e8A7D42aeE\n        );\n\n        // //testnet BSC\n        // priceFeedbnb = AggregatorV3Interface(\n        //     0x2514895c72f50D8bd4B4F9b1110F0D6bD2c97526\n        // );\n        preSaleStartTime = block.timestamp;\n    }\n\n    receive() external payable {}\n\n    // to get real time price of bnb\n    function getLatestPricebnb() public view returns (uint256) {\n        (, int256 price, , , ) = priceFeedbnb.latestRoundData();\n        return uint256(price) / (1e8);\n    }\n\n    // to buy token during preSale time with BNB => for web3 use\n\n    function buyTokenbnb() public payable {\n        require(soldToken <= totalSupply, \"All Sold\");\n        require(\n            block.timestamp >= preSaleStartTime,\n            \"PRESALE: PreSale Not Started Yet\"\n        );\n        uint256 numberOfTokens;\n        numberOfTokens = bnbToToken(msg.value);\n\n        uint256 totalfund = msg.value;\n        wallet1.transfer(totalfund.mul(35).div(100));\n        wallet2.transfer(totalfund.mul(65).div(100));\n\n        soldToken = soldToken + (numberOfTokens);\n        amountRaisedBNB = amountRaisedBNB + (msg.value);\n        users[msg.sender].bnb_balance =\n            users[msg.sender].bnb_balance +\n            (msg.value);\n        users[msg.sender].token_balance =\n            users[msg.sender].token_balance +\n            (numberOfTokens);\n    }\n\n    // to buy token during preSale time with BUSD => for web3 use\n    function buyTokenbusd(uint256 amount) public {\n        require(soldToken <= totalSupply, \"All Sold\");\n        require(\n            block.timestamp >= preSaleStartTime,\n            \"PRESALE: PreSale Not Started Yet\"\n        );\n        BUSD.safeTransferFrom(msg.sender, address(this), amount);\n        BUSD.safeTransfer(wallet1, amount.mul(35).div(100));\n        BUSD.safeTransfer(wallet2, amount.mul(65).div(100));\n\n        uint256 numberOfTokens;\n        numberOfTokens = busdToToken(amount);\n\n        soldToken = soldToken + (numberOfTokens);\n        amountRaisedBUSD = amountRaisedBUSD + (amount);\n        users[msg.sender].busd_balance =\n            users[msg.sender].busd_balance +\n            (amount);\n        users[msg.sender].token_balance =\n            users[msg.sender].token_balance +\n            (numberOfTokens);\n    }\n\n    // to buy token during preSale time with USDT => for web3 use\n    function buyTokenUSDT(uint256 amount) public {\n        require(\n            block.timestamp >= preSaleStartTime,\n            \"PRESALE: PreSale Not Started Yet\"\n        );\n        require(soldToken <= totalSupply, \"All Sold\");\n\n        USDT.safeTransferFrom(msg.sender, address(this), amount);\n        USDT.safeTransfer(wallet1, amount.mul(35).div(100));\n        USDT.safeTransfer(wallet2, amount.mul(65).div(100));\n\n        uint256 numberOfTokens;\n        numberOfTokens = usdtToToken(amount);\n\n        soldToken = soldToken + (numberOfTokens);\n        amountRaisedUSDT = amountRaisedUSDT + (amount);\n        users[msg.sender].usdt_balance =\n            users[msg.sender].usdt_balance +\n            (amount);\n        users[msg.sender].token_balance =\n            users[msg.sender].token_balance +\n            (numberOfTokens);\n    }\n\n    // to claim token after preSale time => for web3 use\n    function claimToken() public {\n        require(isclaimactive, \"preSale: Claim not active\");\n        uint256 tokenBalance = users[msg.sender].token_balance;\n        require(tokenBalance > 0, \"PRESALE: No token to claim\");\n        users[msg.sender].token_balance = 0;\n        DEXOToken.safeTransfer(msg.sender, tokenBalance);\n    }\n\n    // to check number of token for given bnb\n    function bnbToToken(uint256 _amount) public view returns (uint256) {\n        uint256 bnbToUsd = (_amount * (getLatestPricebnb())) / (1 ether);\n        uint256 numberOfTokens = bnbToUsd * (tokenPerUsd);\n        return numberOfTokens;\n    }\n\n    // to check number of token for given busd\n    function busdToToken(uint256 _amount) public view returns (uint256) {\n        uint256 numberOfTokens = (_amount * (tokenPerUsd)) / 1e18;\n        return numberOfTokens;\n    }\n\n    // to check number of token for given usdt\n    function usdtToToken(uint256 _amount) public view returns (uint256) {\n        uint256 numberOfTokens = (_amount * (tokenPerUsd)) / 1e18;\n        return numberOfTokens;\n    }\n\n    // to check percentage of token sold\n    function getProgress() public view returns (uint256 _percent) {\n        uint256 remaining = totalSupply -\n            (soldToken / (10**(DEXOToken.decimals())));\n        remaining = (remaining * (divider)) / (totalSupply);\n        uint256 hundred = 100;\n        return hundred - (remaining);\n    }\n\n    //to enable claim\n    function enableClaim(bool _claim) public onlyOwner {\n        isclaimactive = _claim;\n    }\n\n    // to change Price of the token\n    function changePrice(uint256 _price) external onlyOwner {\n        tokenPerUsd = _price;\n        emit UpdatePrice(_price);\n    }\n\n    // to change preSale amount limits\n    function settotalSupply(uint256 _totalSupply, uint256 _soldToken)\n        external\n        onlyOwner\n    {\n        totalSupply = _totalSupply;\n        soldToken = _soldToken;\n\n        emit UpdateTotalSupply(_totalSupply);\n        emit UpdateSoldTokens(_soldToken);\n    }\n\n    // to change preSale time duration\n    function setPreSaleTime(uint256 _startTime) external onlyOwner {\n        preSaleStartTime = _startTime;\n\n        emit UpdateTime(_startTime);\n    }\n\n    // transfer ownership\n    function changeOwner(address payable _newOwner) external onlyOwner {\n        require(\n            _newOwner != address(0),\n            \"_newOwner wallet cannot be address zero\"\n        );\n        owner = _newOwner;\n        emit OwnershipTransferred(owner, _newOwner);\n    }\n\n    // change tokens\n    function changeToken(address _token) external onlyOwner {\n        DEXOToken = IERC20Metadata(_token);\n    }\n\n    //change BUSD\n    function changeBUSD(address _BUSD) external onlyOwner {\n        BUSD = IERC20Metadata(_BUSD);\n    }\n\n    // to change fund receiving wallets\n    function changewallets(address payable _w1, address payable _w2)\n        external\n        onlyOwner\n    {\n        require(_w1 != address(0) && _w2 != address(0), \"Invalid address!\");\n        wallet1 = _w1;\n        wallet2 = _w2;\n    }\n\n    //change USDT\n    function changeUSDT(address _USDT) external onlyOwner {\n        USDT = IERC20Metadata(_USDT);\n    }\n\n    // to draw funds for liquidity\n    function transferFundsBNB(uint256 _value) external onlyOwner {\n        owner.transfer(_value);\n    }\n\n    // to draw out tokens\n    function transferStuckTokens(IERC20Metadata token, uint256 _value)\n        external\n        onlyOwner\n    {\n        token.safeTransfer(msg.sender, _value);\n    }\n\n    // to get current UTC time\n    function getCurrentTime() external view returns (uint256) {\n        return block.timestamp;\n    }\n\n    // to get contract bnb balance\n    function contractBalancebnb() external view returns (uint256) {\n        return address(this).balance;\n    }\n\n    //to get contract BUSD balance\n    function contractBalanceBUSD() external view returns (uint256) {\n        return BUSD.balanceOf(address(this));\n    }\n\n    //to get contract USDT balance\n    function contractBalanceUSDT() external view returns (uint256) {\n        return USDT.balanceOf(address(this));\n    }\n\n    // to get contract token balance\n    function getContractTokenApproval() external view returns (uint256) {\n        return DEXOToken.allowance(owner, address(this));\n    }\n}\n",
  "sourcePath": "/home/thinker/Documents/Code/doge-rush-react/src/solidity/contracts/Presale.sol",
  "compiler": {
    "name": "solc",
    "version": "0.8.17+commit.8df45f5f.Emscripten.clang"
  },
  "schemaVersion": "3.4.10",
  "updatedAt": "2022-11-05T09:02:06.575Z",
  "devdoc": {
    "kind": "dev",
    "methods": {},
    "version": 1
  },
  "userdoc": {
    "kind": "user",
    "methods": {},
    "version": 1
  }
}